S01400004443204D6F746F72205049442E737265635B
S11300000C9434000C9446000C9446000C940D019E
S11300100C9446000C9446000C9446000C94460044
S11300200C9446000C9446000C9446000C94460034
S11300300C9446000C9446000C948A000C944600E0
S11300400C9446000C9446000C9446000C94460014
S11300500C9446000C9446000C9446000C94460004
S11300600C9446000C94460011241FBECFEFD8E038
S1130070DEBFCDBF21E0A0E0B1E001C01D92AA30F7
S1130080B207E1F70E9448000C9467010C94000049
S113009084B18C7F84B984B18C6084B9E8E6F0E0E3
S11300A0808181608083EBE6F0E0808181608083E1
S11300B0E0E8F0E0808181628083E1E8F0E0808123
S11300C081608083E0EBF0E0808181688083E1EBF4
S11300D0F0E080818160808310928A001092B300E6
S11300E084B5826084BD85B5856085BD8CE787BD98
S11300F0EEE6F0E080818260808310920901109224
S11301000801109201011092000110920501109251
S11301100401FFCF78941F920F920FB60F9211240F
S11301202F933F934F935F936F937F938F939F93FB
S1130130AF93BF93CF93DF93EF93FF93C0910801E5
S1130140D091090120910001309101012C1B3D0B3C
S11301508091020190910301820F931F90930301F8
S11301608093020180910401909105014091020164
S113017050910301B901762F6627770F770FD901C4
S1130180A81BB90BEAE6F8E1AE9FC001AF9F900D42
S1130190BE9F900D1124FB01E80FF91F62E3649FD9
S11301A0C001659F900D11246DE770E00E943F012E
S11301B06E0F7F1F772314F461507C4F872F859532
S11301C08595972F990F990B99232CF080938A008A
S11301D01092B30007C010928A00919581959109FD
S11301E08093B3003093050120930401D093070159
S11301F0C0930601FF91EF91DF91CF91BF91AF9131
S11302009F918F917F916F915F914F913F912F912A
S11302100F900FBE0F901F9018951F920F920FB65C
S11302200F9211242F933F934F938F939F9343B136
S1130230242F217030E041FB882780F990E02817B3
S1130240390751F480910801909109010196909326
S113025009018093080109C0809108019091090166
S1130260019790930901809308019F918F914F9179
S11302703F912F910F900FBE0F901F90189597FBF1
S1130280072E16F4009407D077FD09D00E9453017D
S113029007FC05D03EF4909581959F4F0895709585
S11302A061957F4F0895AA1BBB1B51E107C0AA1F8C
S11302B0BB1FA617B70710F0A61BB70B881F991F03
S11302C05A95A9F780959095BC01CD010895F894AD
S10502D0FFCF5A
S9030000FC
